{
  "contractName": "HealthRecords",
  "abi": [
    {
      "inputs": [],
      "stateMutability": "nonpayable",
      "type": "constructor"
    },
    {
      "anonymous": false,
      "inputs": [
        {
          "indexed": true,
          "internalType": "address",
          "name": "patient",
          "type": "address"
        },
        {
          "indexed": false,
          "internalType": "string",
          "name": "dataHash",
          "type": "string"
        },
        {
          "indexed": false,
          "internalType": "uint256",
          "name": "timestamp",
          "type": "uint256"
        }
      ],
      "name": "RecordAdded",
      "type": "event"
    },
    {
      "inputs": [],
      "name": "owner",
      "outputs": [
        {
          "internalType": "address",
          "name": "",
          "type": "address"
        }
      ],
      "stateMutability": "view",
      "type": "function"
    },
    {
      "inputs": [
        {
          "internalType": "address",
          "name": "_patient",
          "type": "address"
        },
        {
          "internalType": "string",
          "name": "_dataHash",
          "type": "string"
        }
      ],
      "name": "addRecord",
      "outputs": [],
      "stateMutability": "nonpayable",
      "type": "function"
    },
    {
      "inputs": [
        {
          "internalType": "address",
          "name": "_patient",
          "type": "address"
        }
      ],
      "name": "getRecords",
      "outputs": [
        {
          "components": [
            {
              "internalType": "string",
              "name": "dataHash",
              "type": "string"
            },
            {
              "internalType": "uint256",
              "name": "timestamp",
              "type": "uint256"
            },
            {
              "internalType": "address",
              "name": "addedBy",
              "type": "address"
            }
          ],
          "internalType": "struct HealthRecords.Record[]",
          "name": "",
          "type": "tuple[]"
        }
      ],
      "stateMutability": "view",
      "type": "function"
    }
  ],
  "bytecode": "0x608060405234801561001057600080fd5b5033600160006101000a81548173ffffffffffffffffffffffffffffffffffffffff021916908373ffffffffffffffffffffffffffffffffffffffff16021790555061098b806100616000396000f3fe608060405234801561001057600080fd5b50600436106100415760003560e01c806366858ec8146100465780638da5cb5b14610062578063a0076e8414610080575b600080fd5b610060600480360381019061005b9190610510565b6100b0565b005b61006a610212565b60405161007791906106eb565b60405180910390f35b61009a600480360381019061009591906104e7565b610238565b6040516100a79190610706565b60405180910390f35b600060405180606001604052808381526020014281526020013373ffffffffffffffffffffffffffffffffffffffff1681525090506000808473ffffffffffffffffffffffffffffffffffffffff1673ffffffffffffffffffffffffffffffffffffffff16815260200190815260200160002081908060018154018082558091505060019003906000526020600020906003020160009091909190915060008201518160000190805190602001906101699291906103c7565b506020820151816001015560408201518160020160006101000a81548173ffffffffffffffffffffffffffffffffffffffff021916908373ffffffffffffffffffffffffffffffffffffffff16021790555050508273ffffffffffffffffffffffffffffffffffffffff167f4b92a41aaac1d087148ec39a65a261cc6ac88ed7765dece5374bb3893fcfcf9e8342604051610205929190610728565b60405180910390a2505050565b600160009054906101000a900473ffffffffffffffffffffffffffffffffffffffff1681565b60606000808373ffffffffffffffffffffffffffffffffffffffff1673ffffffffffffffffffffffffffffffffffffffff168152602001908152602001600020805480602002602001604051908101604052809291908181526020016000905b828210156103bc57838290600052602060002090600302016040518060600160405290816000820180546102cb9061089d565b80601f01602080910402602001604051908101604052809291908181526020018280546102f79061089d565b80156103445780601f1061031957610100808354040283529160200191610344565b820191906000526020600020905b81548152906001019060200180831161032757829003601f168201915b50505050508152602001600182015481526020016002820160009054906101000a900473ffffffffffffffffffffffffffffffffffffffff1673ffffffffffffffffffffffffffffffffffffffff1673ffffffffffffffffffffffffffffffffffffffff168152505081526020019060010190610298565b505050509050919050565b8280546103d39061089d565b90600052602060002090601f0160209004810192826103f5576000855561043c565b82601f1061040e57805160ff191683800117855561043c565b8280016001018555821561043c579182015b8281111561043b578251825591602001919060010190610420565b5b509050610449919061044d565b5090565b5b8082111561046657600081600090555060010161044e565b5090565b600061047d61047884610789565b610758565b90508281526020810184848401111561049557600080fd5b6104a084828561085b565b509392505050565b6000813590506104b78161093e565b92915050565b600082601f8301126104ce57600080fd5b81356104de84826020860161046a565b91505092915050565b6000602082840312156104f957600080fd5b6000610507848285016104a8565b91505092915050565b6000806040838503121561052357600080fd5b6000610531858286016104a8565b925050602083013567ffffffffffffffff81111561054e57600080fd5b61055a858286016104bd565b9150509250929050565b6000610570838361067d565b905092915050565b6105818161081f565b82525050565b6105908161081f565b82525050565b60006105a1826107c9565b6105ab81856107ec565b9350836020820285016105bd856107b9565b8060005b858110156105f957848403895281516105da8582610564565b94506105e5836107df565b925060208a019950506001810190506105c1565b50829750879550505050505092915050565b6000610616826107d4565b61062081856107fd565b935061063081856020860161086a565b6106398161092d565b840191505092915050565b600061064f826107d4565b610659818561080e565b935061066981856020860161086a565b6106728161092d565b840191505092915050565b6000606083016000830151848203600086015261069a828261060b565b91505060208301516106af60208601826106cd565b5060408301516106c26040860182610578565b508091505092915050565b6106d681610851565b82525050565b6106e581610851565b82525050565b60006020820190506107006000830184610587565b92915050565b600060208201905081810360008301526107208184610596565b905092915050565b600060408201905081810360008301526107428185610644565b905061075160208301846106dc565b9392505050565b6000604051905081810181811067ffffffffffffffff8211171561077f5761077e6108fe565b5b8060405250919050565b600067ffffffffffffffff8211156107a4576107a36108fe565b5b601f19601f8301169050602081019050919050565b6000819050602082019050919050565b600081519050919050565b600081519050919050565b6000602082019050919050565b600082825260208201905092915050565b600082825260208201905092915050565b600082825260208201905092915050565b600061082a82610831565b9050919050565b600073ffffffffffffffffffffffffffffffffffffffff82169050919050565b6000819050919050565b82818337600083830152505050565b60005b8381101561088857808201518184015260208101905061086d565b83811115610897576000848401525b50505050565b600060028204905060018216806108b557607f821691505b602082108114156108c9576108c86108cf565b5b50919050565b7f4e487b7100000000000000000000000000000000000000000000000000000000600052602260045260246000fd5b7f4e487b7100000000000000000000000000000000000000000000000000000000600052604160045260246000fd5b6000601f19601f8301169050919050565b6109478161081f565b811461095257600080fd5b5056fea26469706673582212207f838d3a23d0e69022114ac984e26dae6c6a45a8dadeee22232ea8b400bd14d464736f6c63430008000033",
  "immutableReferences": {},
  "source": "// SPDX-License-Identifier: MIT\npragma solidity ^0.8.0;\n\ncontract HealthRecords {\n    struct Record {\n        string dataHash; \n        uint256 timestamp;\n        address addedBy;\n    }\n\n    mapping(address => Record[]) private patientRecords;\n    address public owner;\n\n    event RecordAdded(address indexed patient, string dataHash, uint256 timestamp);\n\n    constructor() {\n        owner = msg.sender;\n    }\n\n    function addRecord(address _patient, string memory _dataHash) public {\n        Record memory newRecord = Record({\n            dataHash: _dataHash,\n            timestamp: block.timestamp,\n            addedBy: msg.sender\n        });\n\n        patientRecords[_patient].push(newRecord);\n        emit RecordAdded(_patient, _dataHash, block.timestamp);\n    }\n\n    function getRecords(address _patient) public view returns (Record[] memory) {\n        return patientRecords[_patient];\n    }\n}\n",
  "sourcePath": "/Users/siddharthmalhotra/Desktop/Projects/blockchain-health-records/contracts/HealthRecords.sol",
  "compiler": {
    "name": "solc",
    "version": "0.8.0+commit.c7dfd78e.Emscripten.clang"
  },
  "schemaVersion": "3.4.16",
  "updatedAt": "2025-10-01T00:55:56.078Z",
  "devdoc": {
    "kind": "dev",
    "methods": {},
    "version": 1
  },
  "userdoc": {
    "kind": "user",
    "methods": {},
    "version": 1
  }
}